{
  "address": "0x82DE6a95b5fe5CB38466686Ee09D4dC74C9b4A1a",
  "abi": [
    {
      "anonymous": false,
      "inputs": [
        {
          "indexed": true,
          "internalType": "address",
          "name": "owner",
          "type": "address"
        },
        {
          "indexed": true,
          "internalType": "address",
          "name": "spender",
          "type": "address"
        },
        {
          "indexed": false,
          "internalType": "uint256",
          "name": "value",
          "type": "uint256"
        }
      ],
      "name": "Approval",
      "type": "event"
    },
    {
      "anonymous": false,
      "inputs": [
        {
          "indexed": true,
          "internalType": "address",
          "name": "sender",
          "type": "address"
        },
        {
          "indexed": true,
          "internalType": "address",
          "name": "beneficiary",
          "type": "address"
        },
        {
          "indexed": false,
          "internalType": "uint256",
          "name": "shares",
          "type": "uint256"
        }
      ],
      "name": "Burn",
      "type": "event"
    },
    {
      "anonymous": false,
      "inputs": [
        {
          "indexed": true,
          "internalType": "address",
          "name": "sender",
          "type": "address"
        },
        {
          "indexed": false,
          "internalType": "uint256",
          "name": "amount",
          "type": "uint256"
        }
      ],
      "name": "ClaimRewards",
      "type": "event"
    },
    {
      "anonymous": false,
      "inputs": [
        {
          "indexed": true,
          "internalType": "address",
          "name": "sender",
          "type": "address"
        },
        {
          "indexed": false,
          "internalType": "uint256",
          "name": "liquidity",
          "type": "uint256"
        }
      ],
      "name": "CompoundProfits",
      "type": "event"
    },
    {
      "anonymous": false,
      "inputs": [
        {
          "indexed": true,
          "internalType": "address",
          "name": "sender",
          "type": "address"
        },
        {
          "indexed": true,
          "internalType": "address",
          "name": "beneficiary",
          "type": "address"
        },
        {
          "indexed": false,
          "internalType": "uint256",
          "name": "shares",
          "type": "uint256"
        }
      ],
      "name": "Mint",
      "type": "event"
    },
    {
      "anonymous": false,
      "inputs": [
        {
          "indexed": true,
          "internalType": "address",
          "name": "previousOwner",
          "type": "address"
        },
        {
          "indexed": true,
          "internalType": "address",
          "name": "newOwner",
          "type": "address"
        }
      ],
      "name": "OwnershipTransferred",
      "type": "event"
    },
    {
      "anonymous": false,
      "inputs": [
        {
          "indexed": true,
          "internalType": "address",
          "name": "sender",
          "type": "address"
        },
        {
          "indexed": true,
          "internalType": "address",
          "name": "minter",
          "type": "address"
        },
        {
          "indexed": false,
          "internalType": "uint256",
          "name": "pairedUSDC",
          "type": "uint256"
        },
        {
          "indexed": false,
          "internalType": "uint256",
          "name": "pairedETH",
          "type": "uint256"
        },
        {
          "indexed": false,
          "internalType": "uint256",
          "name": "liquidity",
          "type": "uint256"
        }
      ],
      "name": "Pair",
      "type": "event"
    },
    {
      "anonymous": false,
      "inputs": [
        {
          "indexed": false,
          "internalType": "address",
          "name": "account",
          "type": "address"
        }
      ],
      "name": "Paused",
      "type": "event"
    },
    {
      "anonymous": false,
      "inputs": [
        {
          "indexed": true,
          "internalType": "address",
          "name": "from",
          "type": "address"
        },
        {
          "indexed": true,
          "internalType": "address",
          "name": "to",
          "type": "address"
        },
        {
          "indexed": false,
          "internalType": "uint256",
          "name": "value",
          "type": "uint256"
        }
      ],
      "name": "Transfer",
      "type": "event"
    },
    {
      "anonymous": false,
      "inputs": [
        {
          "indexed": true,
          "internalType": "address",
          "name": "sender",
          "type": "address"
        },
        {
          "indexed": true,
          "internalType": "address",
          "name": "minter",
          "type": "address"
        },
        {
          "indexed": false,
          "internalType": "uint256",
          "name": "exitUSDC",
          "type": "uint256"
        },
        {
          "indexed": false,
          "internalType": "uint256",
          "name": "exitETH",
          "type": "uint256"
        },
        {
          "indexed": false,
          "internalType": "uint256",
          "name": "liquidity",
          "type": "uint256"
        }
      ],
      "name": "Unpair",
      "type": "event"
    },
    {
      "anonymous": false,
      "inputs": [
        {
          "indexed": false,
          "internalType": "address",
          "name": "account",
          "type": "address"
        }
      ],
      "name": "Unpaused",
      "type": "event"
    },
    {
      "inputs": [],
      "name": "MASTERCHEF",
      "outputs": [
        {
          "internalType": "address",
          "name": "",
          "type": "address"
        }
      ],
      "stateMutability": "view",
      "type": "function"
    },
    {
      "inputs": [],
      "name": "POOL_ID",
      "outputs": [
        {
          "internalType": "uint256",
          "name": "",
          "type": "uint256"
        }
      ],
      "stateMutability": "view",
      "type": "function"
    },
    {
      "inputs": [],
      "name": "REWARD",
      "outputs": [
        {
          "internalType": "address",
          "name": "",
          "type": "address"
        }
      ],
      "stateMutability": "view",
      "type": "function"
    },
    {
      "inputs": [],
      "name": "ROUTER",
      "outputs": [
        {
          "internalType": "address",
          "name": "",
          "type": "address"
        }
      ],
      "stateMutability": "view",
      "type": "function"
    },
    {
      "inputs": [],
      "name": "SLP",
      "outputs": [
        {
          "internalType": "address",
          "name": "",
          "type": "address"
        }
      ],
      "stateMutability": "view",
      "type": "function"
    },
    {
      "inputs": [],
      "name": "USDC",
      "outputs": [
        {
          "internalType": "address",
          "name": "",
          "type": "address"
        }
      ],
      "stateMutability": "view",
      "type": "function"
    },
    {
      "inputs": [],
      "name": "WETH",
      "outputs": [
        {
          "internalType": "address",
          "name": "",
          "type": "address"
        }
      ],
      "stateMutability": "view",
      "type": "function"
    },
    {
      "inputs": [
        {
          "internalType": "address",
          "name": "beneficiary",
          "type": "address"
        },
        {
          "internalType": "uint256",
          "name": "amountETH",
          "type": "uint256"
        },
        {
          "internalType": "uint256",
          "name": "deadline",
          "type": "uint256"
        }
      ],
      "name": "addLiquidity",
      "outputs": [],
      "stateMutability": "nonpayable",
      "type": "function"
    },
    {
      "inputs": [
        {
          "internalType": "address",
          "name": "beneficiary",
          "type": "address"
        },
        {
          "internalType": "uint256",
          "name": "deadline",
          "type": "uint256"
        }
      ],
      "name": "addLiquidityETH",
      "outputs": [],
      "stateMutability": "payable",
      "type": "function"
    },
    {
      "inputs": [
        {
          "internalType": "address",
          "name": "owner",
          "type": "address"
        },
        {
          "internalType": "address",
          "name": "spender",
          "type": "address"
        }
      ],
      "name": "allowance",
      "outputs": [
        {
          "internalType": "uint256",
          "name": "",
          "type": "uint256"
        }
      ],
      "stateMutability": "view",
      "type": "function"
    },
    {
      "inputs": [
        {
          "internalType": "uint256",
          "name": "outUSDC",
          "type": "uint256"
        }
      ],
      "name": "amountInETHForRequestedOutUSDC",
      "outputs": [
        {
          "internalType": "uint256",
          "name": "inETH",
          "type": "uint256"
        }
      ],
      "stateMutability": "view",
      "type": "function"
    },
    {
      "inputs": [
        {
          "internalType": "address",
          "name": "spender",
          "type": "address"
        },
        {
          "internalType": "uint256",
          "name": "amount",
          "type": "uint256"
        }
      ],
      "name": "approve",
      "outputs": [
        {
          "internalType": "bool",
          "name": "",
          "type": "bool"
        }
      ],
      "stateMutability": "nonpayable",
      "type": "function"
    },
    {
      "inputs": [],
      "name": "availableSpaceToDepositETH",
      "outputs": [
        {
          "internalType": "uint256",
          "name": "amountETH",
          "type": "uint256"
        }
      ],
      "stateMutability": "view",
      "type": "function"
    },
    {
      "inputs": [
        {
          "internalType": "address",
          "name": "account",
          "type": "address"
        }
      ],
      "name": "balanceOf",
      "outputs": [
        {
          "internalType": "uint256",
          "name": "",
          "type": "uint256"
        }
      ],
      "stateMutability": "view",
      "type": "function"
    },
    {
      "inputs": [],
      "name": "claimRewards",
      "outputs": [],
      "stateMutability": "nonpayable",
      "type": "function"
    },
    {
      "inputs": [
        {
          "internalType": "uint256",
          "name": "amountETH",
          "type": "uint256"
        },
        {
          "internalType": "uint256",
          "name": "capitalProviderRewardPercentmil",
          "type": "uint256"
        }
      ],
      "name": "compoundProfits",
      "outputs": [
        {
          "internalType": "uint256",
          "name": "pairedUSDC",
          "type": "uint256"
        },
        {
          "internalType": "uint256",
          "name": "pairedETH",
          "type": "uint256"
        },
        {
          "internalType": "uint256",
          "name": "liquidity",
          "type": "uint256"
        }
      ],
      "stateMutability": "nonpayable",
      "type": "function"
    },
    {
      "inputs": [],
      "name": "decimals",
      "outputs": [
        {
          "internalType": "uint8",
          "name": "",
          "type": "uint8"
        }
      ],
      "stateMutability": "view",
      "type": "function"
    },
    {
      "inputs": [
        {
          "internalType": "address",
          "name": "spender",
          "type": "address"
        },
        {
          "internalType": "uint256",
          "name": "subtractedValue",
          "type": "uint256"
        }
      ],
      "name": "decreaseAllowance",
      "outputs": [
        {
          "internalType": "bool",
          "name": "",
          "type": "bool"
        }
      ],
      "stateMutability": "nonpayable",
      "type": "function"
    },
    {
      "inputs": [],
      "name": "depositAllCapital",
      "outputs": [],
      "stateMutability": "nonpayable",
      "type": "function"
    },
    {
      "inputs": [
        {
          "internalType": "uint256",
          "name": "amount",
          "type": "uint256"
        }
      ],
      "name": "depositCapital",
      "outputs": [],
      "stateMutability": "nonpayable",
      "type": "function"
    },
    {
      "inputs": [
        {
          "internalType": "address[]",
          "name": "minterAddresses",
          "type": "address[]"
        }
      ],
      "name": "emergencyExit",
      "outputs": [],
      "stateMutability": "nonpayable",
      "type": "function"
    },
    {
      "inputs": [],
      "name": "governance",
      "outputs": [
        {
          "internalType": "address",
          "name": "",
          "type": "address"
        }
      ],
      "stateMutability": "view",
      "type": "function"
    },
    {
      "inputs": [
        {
          "internalType": "address",
          "name": "spender",
          "type": "address"
        },
        {
          "internalType": "uint256",
          "name": "addedValue",
          "type": "uint256"
        }
      ],
      "name": "increaseAllowance",
      "outputs": [
        {
          "internalType": "bool",
          "name": "",
          "type": "bool"
        }
      ],
      "stateMutability": "nonpayable",
      "type": "function"
    },
    {
      "inputs": [
        {
          "internalType": "address",
          "name": "",
          "type": "address"
        }
      ],
      "name": "minters",
      "outputs": [
        {
          "internalType": "uint256",
          "name": "pairedETH",
          "type": "uint256"
        },
        {
          "internalType": "uint256",
          "name": "pairedUSDC",
          "type": "uint256"
        },
        {
          "internalType": "uint256",
          "name": "pairedShares",
          "type": "uint256"
        },
        {
          "internalType": "uint256",
          "name": "unpairedETH",
          "type": "uint256"
        },
        {
          "internalType": "uint256",
          "name": "unpairedShares",
          "type": "uint256"
        }
      ],
      "stateMutability": "view",
      "type": "function"
    },
    {
      "inputs": [],
      "name": "name",
      "outputs": [
        {
          "internalType": "string",
          "name": "",
          "type": "string"
        }
      ],
      "stateMutability": "view",
      "type": "function"
    },
    {
      "inputs": [],
      "name": "owner",
      "outputs": [
        {
          "internalType": "address",
          "name": "",
          "type": "address"
        }
      ],
      "stateMutability": "view",
      "type": "function"
    },
    {
      "inputs": [
        {
          "internalType": "uint256",
          "name": "",
          "type": "uint256"
        }
      ],
      "name": "pathToETH",
      "outputs": [
        {
          "internalType": "address",
          "name": "",
          "type": "address"
        }
      ],
      "stateMutability": "view",
      "type": "function"
    },
    {
      "inputs": [
        {
          "internalType": "uint256",
          "name": "",
          "type": "uint256"
        }
      ],
      "name": "pathToUSDC",
      "outputs": [
        {
          "internalType": "address",
          "name": "",
          "type": "address"
        }
      ],
      "stateMutability": "view",
      "type": "function"
    },
    {
      "inputs": [],
      "name": "pause",
      "outputs": [],
      "stateMutability": "nonpayable",
      "type": "function"
    },
    {
      "inputs": [],
      "name": "paused",
      "outputs": [
        {
          "internalType": "bool",
          "name": "",
          "type": "bool"
        }
      ],
      "stateMutability": "view",
      "type": "function"
    },
    {
      "inputs": [],
      "name": "pricePerFullShare",
      "outputs": [
        {
          "internalType": "uint256",
          "name": "",
          "type": "uint256"
        }
      ],
      "stateMutability": "view",
      "type": "function"
    },
    {
      "inputs": [
        {
          "internalType": "uint256",
          "name": "inETH",
          "type": "uint256"
        }
      ],
      "name": "quote",
      "outputs": [
        {
          "internalType": "uint256",
          "name": "outUSDC",
          "type": "uint256"
        }
      ],
      "stateMutability": "view",
      "type": "function"
    },
    {
      "inputs": [
        {
          "internalType": "uint256",
          "name": "inUSDC",
          "type": "uint256"
        }
      ],
      "name": "quoteInverse",
      "outputs": [
        {
          "internalType": "uint256",
          "name": "outETH",
          "type": "uint256"
        }
      ],
      "stateMutability": "view",
      "type": "function"
    },
    {
      "inputs": [
        {
          "internalType": "address",
          "name": "beneficiary",
          "type": "address"
        },
        {
          "internalType": "uint256",
          "name": "deadline",
          "type": "uint256"
        }
      ],
      "name": "removeAllLiquidity",
      "outputs": [
        {
          "internalType": "uint256",
          "name": "exitETH",
          "type": "uint256"
        }
      ],
      "stateMutability": "nonpayable",
      "type": "function"
    },
    {
      "inputs": [
        {
          "internalType": "address payable",
          "name": "beneficiary",
          "type": "address"
        },
        {
          "internalType": "uint256",
          "name": "deadline",
          "type": "uint256"
        }
      ],
      "name": "removeAllLiquidityETH",
      "outputs": [
        {
          "internalType": "uint256",
          "name": "exitETH",
          "type": "uint256"
        }
      ],
      "stateMutability": "nonpayable",
      "type": "function"
    },
    {
      "inputs": [
        {
          "internalType": "address",
          "name": "beneficiary",
          "type": "address"
        },
        {
          "internalType": "uint256",
          "name": "shares",
          "type": "uint256"
        },
        {
          "internalType": "uint256",
          "name": "deadline",
          "type": "uint256"
        }
      ],
      "name": "removeLiquidity",
      "outputs": [
        {
          "internalType": "uint256",
          "name": "exitETH",
          "type": "uint256"
        }
      ],
      "stateMutability": "nonpayable",
      "type": "function"
    },
    {
      "inputs": [
        {
          "internalType": "address payable",
          "name": "beneficiary",
          "type": "address"
        },
        {
          "internalType": "uint256",
          "name": "shares",
          "type": "uint256"
        },
        {
          "internalType": "uint256",
          "name": "deadline",
          "type": "uint256"
        }
      ],
      "name": "removeLiquidityETH",
      "outputs": [
        {
          "internalType": "uint256",
          "name": "exitETH",
          "type": "uint256"
        }
      ],
      "stateMutability": "nonpayable",
      "type": "function"
    },
    {
      "inputs": [],
      "name": "renounceOwnership",
      "outputs": [],
      "stateMutability": "nonpayable",
      "type": "function"
    },
    {
      "inputs": [
        {
          "internalType": "address[]",
          "name": "tokens_",
          "type": "address[]"
        }
      ],
      "name": "salvage",
      "outputs": [],
      "stateMutability": "nonpayable",
      "type": "function"
    },
    {
      "inputs": [
        {
          "internalType": "address",
          "name": "_governance",
          "type": "address"
        }
      ],
      "name": "setGovernance",
      "outputs": [],
      "stateMutability": "nonpayable",
      "type": "function"
    },
    {
      "inputs": [],
      "name": "symbol",
      "outputs": [
        {
          "internalType": "string",
          "name": "",
          "type": "string"
        }
      ],
      "stateMutability": "view",
      "type": "function"
    },
    {
      "inputs": [],
      "name": "totalLiquidity",
      "outputs": [
        {
          "internalType": "uint256",
          "name": "",
          "type": "uint256"
        }
      ],
      "stateMutability": "view",
      "type": "function"
    },
    {
      "inputs": [],
      "name": "totalPairedETH",
      "outputs": [
        {
          "internalType": "uint256",
          "name": "",
          "type": "uint256"
        }
      ],
      "stateMutability": "view",
      "type": "function"
    },
    {
      "inputs": [],
      "name": "totalPairedShares",
      "outputs": [
        {
          "internalType": "uint256",
          "name": "",
          "type": "uint256"
        }
      ],
      "stateMutability": "view",
      "type": "function"
    },
    {
      "inputs": [],
      "name": "totalPairedUSDC",
      "outputs": [
        {
          "internalType": "uint256",
          "name": "",
          "type": "uint256"
        }
      ],
      "stateMutability": "view",
      "type": "function"
    },
    {
      "inputs": [],
      "name": "totalSupply",
      "outputs": [
        {
          "internalType": "uint256",
          "name": "",
          "type": "uint256"
        }
      ],
      "stateMutability": "view",
      "type": "function"
    },
    {
      "inputs": [
        {
          "internalType": "address",
          "name": "recipient",
          "type": "address"
        },
        {
          "internalType": "uint256",
          "name": "amount",
          "type": "uint256"
        }
      ],
      "name": "transfer",
      "outputs": [
        {
          "internalType": "bool",
          "name": "",
          "type": "bool"
        }
      ],
      "stateMutability": "nonpayable",
      "type": "function"
    },
    {
      "inputs": [
        {
          "internalType": "address",
          "name": "sender",
          "type": "address"
        },
        {
          "internalType": "address",
          "name": "recipient",
          "type": "address"
        },
        {
          "internalType": "uint256",
          "name": "amount",
          "type": "uint256"
        }
      ],
      "name": "transferFrom",
      "outputs": [
        {
          "internalType": "bool",
          "name": "",
          "type": "bool"
        }
      ],
      "stateMutability": "nonpayable",
      "type": "function"
    },
    {
      "inputs": [
        {
          "internalType": "address",
          "name": "newOwner",
          "type": "address"
        }
      ],
      "name": "transferOwnership",
      "outputs": [],
      "stateMutability": "nonpayable",
      "type": "function"
    },
    {
      "inputs": [],
      "name": "unpause",
      "outputs": [],
      "stateMutability": "nonpayable",
      "type": "function"
    },
    {
      "inputs": [],
      "name": "withdrawFreeCapital",
      "outputs": [],
      "stateMutability": "nonpayable",
      "type": "function"
    },
    {
      "stateMutability": "payable",
      "type": "receive"
    }
  ],
  "transactionHash": "0x420eef968bee9f4af8167fb3d95c69aa5ad6e01a994f04d8c5c62d39be382d6f",
  "args": [],
  "solcInputHash": "d5e2dd8ff178d761347d90028349310a",
  "bytecode": "0x6002608081815260e060405290816020016020820280368337505081516200002f92600892506020019062000546565b506040805160028082526060820183529091602083019080368337505081516200006192600992506020019062000546565b503480156200006f57600080fd5b50604080518082018252601b81527f4e65787573204c5020537573686953776170204554482f55534443000000000060208083019182528351808501909452600484526304e534c560e41b908401528151919291620000d191600391620005b0565b508051620000e7906004906020840190620005b0565b50506005805460ff191660121790555060006200010362000542565b60058054610100600160a81b0319166101006001600160a01b03841690810291909117909155604051919250906000907f8be0079c531659141344cd1fd0a4f28419497f9722a3daafe3b4186f6b6457e0908290a3506005805460ff60a81b191690556001600655600780546001600160a01b031916331790556009805473c02aaa39b223fe8d0a0e5c4f27ead9083c756cc29190600090620001a257fe5b9060005260206000200160006101000a8154816001600160a01b0302191690836001600160a01b0316021790555073a0b86991c6218b36c1d19d4a2e9eb0ce3606eb486009600181548110620001f457fe5b9060005260206000200160006101000a8154816001600160a01b0302191690836001600160a01b0316021790555073a0b86991c6218b36c1d19d4a2e9eb0ce3606eb4860086000815481106200024657fe5b9060005260206000200160006101000a8154816001600160a01b0302191690836001600160a01b0316021790555073c02aaa39b223fe8d0a0e5c4f27ead9083c756cc260086001815481106200029857fe5b600091825260208083209190910180546001600160a01b0319166001600160a01b0394909416939093179092556040805163095ea7b360e01b815273d9e1ce17f2641f24ae83637ab66a2cca9c378b9f60048201526000196024820152905173a0b86991c6218b36c1d19d4a2e9eb0ce3606eb489363095ea7b3936044808501949293928390030190829087803b1580156200033357600080fd5b505af115801562000348573d6000803e3d6000fd5b505050506040513d60208110156200035f57600080fd5b50506040805163095ea7b360e01b815273d9e1ce17f2641f24ae83637ab66a2cca9c378b9f60048201526000196024820152905173c02aaa39b223fe8d0a0e5c4f27ead9083c756cc29163095ea7b39160448083019260209291908290030181600087803b158015620003d157600080fd5b505af1158015620003e6573d6000803e3d6000fd5b505050506040513d6020811015620003fd57600080fd5b50506040805163095ea7b360e01b815273d9e1ce17f2641f24ae83637ab66a2cca9c378b9f60048201526000196024820152905173397ff1542f962076d0bfe58ea045ffa2d347aca09163095ea7b39160448083019260209291908290030181600087803b1580156200046f57600080fd5b505af115801562000484573d6000803e3d6000fd5b505050506040513d60208110156200049b57600080fd5b50506040805163095ea7b360e01b815273c2edad668740f1aa35e4d8f227fb8e17dca888cd60048201526000196024820152905173397ff1542f962076d0bfe58ea045ffa2d347aca09163095ea7b39160448083019260209291908290030181600087803b1580156200050d57600080fd5b505af115801562000522573d6000803e3d6000fd5b505050506040513d60208110156200053957600080fd5b506200064a9050565b3390565b8280548282559060005260206000209081019282156200059e579160200282015b828111156200059e57825182546001600160a01b0319166001600160a01b0390911617825560209092019160019091019062000567565b50620005ac92915062000633565b5090565b828054600181600116156101000203166002900490600052602060002090601f016020900481019282620005e857600085556200059e565b82601f106200060357805160ff19168380011785556200059e565b828001600101855582156200059e579182015b828111156200059e57825182559160200191906001019062000616565b5b80821115620005ac576000815560010162000634565b614245806200065a6000396000f3fe6080604052600436106102e85760003560e01c80638456cb5911610190578063b1eb5352116100dc578063dd62ed3e11610095578063e38192e31161006f578063e38192e314610b45578063ed1bd76c14610b84578063f2fde38b14610bae578063f46eccc414610be1576102ef565b8063dd62ed3e14610ae0578063e0d7d0e914610b1b578063e3692c3614610b30576102ef565b8063b1eb535214610957578063bf5c29ce14610981578063ca08d237146109ba578063cab34c08146109cf578063d29f902a146109e4578063d85d515e14610a32576102ef565b80639e11ef4411610149578063a9059cbb11610123578063a9059cbb14610828578063ab033ea914610861578063ad5c464814610894578063af33fc62146108a9576102ef565b80639e11ef44146107b05780639f98b66e146107da578063a457c2d7146107ef576102ef565b80638456cb591461073257806389a30271146107475780638da5cb5b1461075c578063900d10991461077157806395d89b41146107865780639d8d815b1461079b576102ef565b8063372500ab1161024f5780635c975abb116102085780636e78641d116101e25780636e78641d146106a957806370a08231146106be578063715018a6146106f15780637282d54814610706576102ef565b80635c975abb14610631578063662fd8041461064657806366e2d97e14610670576102ef565b8063372500ab14610563578063386fed691461057a578063395093511461058f5780633f4ba83a146105c857806355776b77146105dd5780635aa6e6751461061c576102ef565b806320ec7d7c116102a157806320ec7d7c1461047757806323b872dd146104b65780632509f1b9146104f9578063313ce5671461050e57806332bf72c01461053957806332fe7b261461054e576102ef565b806306fdde03146102f4578063095ea7b31461037e57806314b4218c146103cb57806315770f92146104115780631598b7f81461043857806318160ddd14610462576102ef565b366102ef57005b600080fd5b34801561030057600080fd5b50610309610c3f565b6040805160208082528351818301528351919283929083019185019080838360005b8381101561034357818101518382015260200161032b565b50505050905090810190601f1680156103705780820380516001836020036101000a031916815260200191505b509250505060405180910390f35b34801561038a57600080fd5b506103b7600480360360408110156103a157600080fd5b506001600160a01b038135169060200135610cd6565b604080519115158252519081900360200190f35b3480156103d757600080fd5b506103f5600480360360208110156103ee57600080fd5b5035610cf4565b604080516001600160a01b039092168252519081900360200190f35b34801561041d57600080fd5b50610426610d1e565b60408051918252519081900360200190f35b34801561044457600080fd5b506104266004803603602081101561045b57600080fd5b5035610d24565b34801561046e57600080fd5b50610426610e47565b34801561048357600080fd5b506104266004803603606081101561049a57600080fd5b506001600160a01b038135169060208101359060400135610e4d565b3480156104c257600080fd5b506103b7600480360360608110156104d957600080fd5b506001600160a01b03813581169160208101359091169060400135610f2a565b34801561050557600080fd5b506103f5610fb2565b34801561051a57600080fd5b50610523610fca565b6040805160ff9092168252519081900360200190f35b34801561054557600080fd5b50610426610fd3565b34801561055a57600080fd5b506103f5610fd9565b34801561056f57600080fd5b50610578610ff1565b005b34801561058657600080fd5b50610578611175565b34801561059b57600080fd5b506103b7600480360360408110156105b257600080fd5b506001600160a01b038135169060200135611260565b3480156105d457600080fd5b506105786112ae565b3480156105e957600080fd5b506105786004803603606081101561060057600080fd5b506001600160a01b038135169060208101359060400135611318565b34801561062857600080fd5b506103f56113df565b34801561063d57600080fd5b506103b76113ee565b34801561065257600080fd5b506103f56004803603602081101561066957600080fd5b50356113fe565b34801561067c57600080fd5b506104266004803603604081101561069357600080fd5b506001600160a01b03813516906020013561140e565b3480156106b557600080fd5b50610426611495565b3480156106ca57600080fd5b50610426600480360360208110156106e157600080fd5b50356001600160a01b031661149b565b3480156106fd57600080fd5b506105786114ba565b6105786004803603604081101561071c57600080fd5b506001600160a01b03813516906020013561156c565b34801561073e57600080fd5b50610578611676565b34801561075357600080fd5b506103f56116e0565b34801561076857600080fd5b506103f56116f8565b34801561077d57600080fd5b5061057861170c565b34801561079257600080fd5b50610309611819565b3480156107a757600080fd5b5061042661187a565b3480156107bc57600080fd5b50610578600480360360208110156107d357600080fd5b5035611880565b3480156107e657600080fd5b50610426611908565b3480156107fb57600080fd5b506103b76004803603604081101561081257600080fd5b506001600160a01b03813516906020013561194b565b34801561083457600080fd5b506103b76004803603604081101561084b57600080fd5b506001600160a01b0381351690602001356119b3565b34801561086d57600080fd5b506105786004803603602081101561088457600080fd5b50356001600160a01b03166119c7565b3480156108a057600080fd5b506103f5611a87565b3480156108b557600080fd5b50610578600480360360208110156108cc57600080fd5b810190602081018135600160201b8111156108e657600080fd5b8201836020820111156108f857600080fd5b803590602001918460208302840111600160201b8311171561091957600080fd5b919080806020026020016040519081016040528093929190818152602001838360200280828437600092019190915250929550611a99945050505050565b34801561096357600080fd5b506104266004803603602081101561097a57600080fd5b5035611b69565b34801561098d57600080fd5b50610426600480360360408110156109a457600080fd5b506001600160a01b038135169060200135611cf6565b3480156109c657600080fd5b50610426611e87565b3480156109db57600080fd5b506103f5611f10565b3480156109f057600080fd5b50610a1460048036036040811015610a0757600080fd5b5080359060200135611f28565b60408051938452602084019290925282820152519081900360600190f35b348015610a3e57600080fd5b5061057860048036036020811015610a5557600080fd5b810190602081018135600160201b811115610a6f57600080fd5b820183602082011115610a8157600080fd5b803590602001918460208302840111600160201b83111715610aa257600080fd5b9190808060200260200160405190810160405280939291908181526020018383602002808284376000920191909152509295506120b4945050505050565b348015610aec57600080fd5b5061042660048036036040811015610b0357600080fd5b506001600160a01b038135811691602001351661222a565b348015610b2757600080fd5b50610426612255565b348015610b3c57600080fd5b506103f561225a565b348015610b5157600080fd5b5061042660048036036060811015610b6857600080fd5b506001600160a01b038135169060208101359060400135612272565b348015610b9057600080fd5b5061042660048036036020811015610ba757600080fd5b50356122e6565b348015610bba57600080fd5b5061057860048036036020811015610bd157600080fd5b50356001600160a01b03166123d5565b348015610bed57600080fd5b50610c1460048036036020811015610c0457600080fd5b50356001600160a01b03166124e3565b6040805195865260208601949094528484019290925260608401526080830152519081900360a00190f35b60038054604080516020601f6002600019610100600188161502019095169490940493840181900481028201810190925282815260609390929091830182828015610ccb5780601f10610ca057610100808354040283529160200191610ccb565b820191906000526020600020905b815481529060010190602001808311610cae57829003601f168201915b505050505090505b90565b6000610cea610ce3612512565b8484612516565b5060015b92915050565b60098181548110610d0457600080fd5b6000918252602090912001546001600160a01b0316905081565b600a5481565b600080600073397ff1542f962076d0bfe58ea045ffa2d347aca06001600160a01b0316630902f1ac6040518163ffffffff1660e01b815260040160606040518083038186803b158015610d7657600080fd5b505afa158015610d8a573d6000803e3d6000fd5b505050506040513d6060811015610da057600080fd5b50805160209182015160408051632b58577b60e21b8152600481018990526001600160701b03808516602483015283166044820152905192955090935073d9e1ce17f2641f24ae83637ab66a2cca9c378b9f9263ad615dec92606480840193829003018186803b158015610e1357600080fd5b505afa158015610e27573d6000803e3d6000fd5b505050506040513d6020811015610e3d57600080fd5b5051949350505050565b60025490565b600060026006541415610e95576040805162461bcd60e51b815260206004820152601f6024820152600080516020613fbe833981519152604482015290519081900360640190fd5b6002600655610ea633858585612602565b90506000805160206140008339815191526001600160a01b0316632e1a7d4d826040518263ffffffff1660e01b815260040180828152602001915050600060405180830381600087803b158015610efc57600080fd5b505af1158015610f10573d6000803e3d6000fd5b50505050610f1e848261275d565b60016006559392505050565b6000610f37848484612847565b610fa784610f43612512565b610fa28560405180606001604052806028815260200161410f602891396001600160a01b038a16600090815260016020526040812090610f81612512565b6001600160a01b0316815260208101919091526040016000205491906129a2565b612516565b5060015b9392505050565b73397ff1542f962076d0bfe58ea045ffa2d347aca081565b60055460ff1690565b600b5481565b73d9e1ce17f2641f24ae83637ab66a2cca9c378b9f81565b60026006541415611037576040805162461bcd60e51b815260206004820152601f6024820152600080516020613fbe833981519152604482015290519081900360640190fd5b60026006556007546001600160a01b0316331461108d576040805162461bcd60e51b815260206004820152600f60248201526e6f6e6c7920676f7665726e616e636560881b604482015290519081900360640190fd5b611095612a39565b604080516370a0823160e01b81523060048201529051600091736b3595068778dd592e39a122f4f5a5cf09c90fe2916370a0823191602480820192602092909190829003018186803b1580156110ea57600080fd5b505afa1580156110fe573d6000803e3d6000fd5b505050506040513d602081101561111457600080fd5b50519050611137736b3595068778dd592e39a122f4f5a5cf09c90fe23383612aab565b60408051828152905133917f1f89f96333d3133000ee447473151fa9606543368f02271c9d95ae14f13bcc67919081900360200190a2506001600655565b61117d612512565b6001600160a01b031661118e6116f8565b6001600160a01b0316146111d7576040805162461bcd60e51b81526020600482018190526024820152600080516020614137833981519152604482015290519081900360640190fd5b604080516370a0823160e01b8152336004820152905161125e9173a0b86991c6218b36c1d19d4a2e9eb0ce3606eb48916370a0823191602480820192602092909190829003018186803b15801561122d57600080fd5b505afa158015611241573d6000803e3d6000fd5b505050506040513d602081101561125757600080fd5b5051611880565b565b6000610cea61126d612512565b84610fa2856001600061127e612512565b6001600160a01b03908116825260208083019390935260409182016000908120918c168152925290205490612afd565b6112b6612512565b6001600160a01b03166112c76116f8565b6001600160a01b031614611310576040805162461bcd60e51b81526020600482018190526024820152600080516020614137833981519152604482015290519081900360640190fd5b61125e612b57565b6002600654141561135e576040805162461bcd60e51b815260206004820152601f6024820152600080516020613fbe833981519152604482015290519081900360640190fd5b600260065561136b6113ee565b156113b0576040805162461bcd60e51b815260206004820152601060248201526f14185d5cd8589b194e881c185d5cd95960821b604482015290519081900360640190fd5b6113ca600080516020614000833981519152333085612bfa565b6113d5838383612c54565b5050600160065550565b6007546001600160a01b031681565b600554600160a81b900460ff1690565b60088181548110610d0457600080fd5b600060026006541415611456576040805162461bcd60e51b815260206004820152601f6024820152600080516020613fbe833981519152604482015290519081900360640190fd5b600260065561146f33846114698261149b565b85612602565b905061148a6000805160206140008339815191528483612aab565b600160065592915050565b600c5481565b6001600160a01b0381166000908152602081905260409020545b919050565b6114c2612512565b6001600160a01b03166114d36116f8565b6001600160a01b03161461151c576040805162461bcd60e51b81526020600482018190526024820152600080516020614137833981519152604482015290519081900360640190fd5b60055460405160009161010090046001600160a01b0316907f8be0079c531659141344cd1fd0a4f28419497f9722a3daafe3b4186f6b6457e0908390a360058054610100600160a81b0319169055565b600260065414156115b2576040805162461bcd60e51b815260206004820152601f6024820152600080516020613fbe833981519152604482015290519081900360640190fd5b60026006556115bf6113ee565b15611604576040805162461bcd60e51b815260206004820152601060248201526f14185d5cd8589b194e881c185d5cd95960821b604482015290519081900360640190fd5b60003490506000805160206140008339815191526001600160a01b031663d0e30db0826040518263ffffffff1660e01b81526004016000604051808303818588803b15801561165257600080fd5b505af1158015611666573d6000803e3d6000fd5b50505050506113d5838284612c54565b61167e612512565b6001600160a01b031661168f6116f8565b6001600160a01b0316146116d8576040805162461bcd60e51b81526020600482018190526024820152600080516020614137833981519152604482015290519081900360640190fd5b61125e612ccc565b73a0b86991c6218b36c1d19d4a2e9eb0ce3606eb4881565b60055461010090046001600160a01b031690565b611714612512565b6001600160a01b03166117256116f8565b6001600160a01b03161461176e576040805162461bcd60e51b81526020600482018190526024820152600080516020614137833981519152604482015290519081900360640190fd5b604080516370a0823160e01b8152306004820152905160009173a0b86991c6218b36c1d19d4a2e9eb0ce3606eb48916370a0823191602480820192602092909190829003018186803b1580156117c357600080fd5b505afa1580156117d7573d6000803e3d6000fd5b505050506040513d60208110156117ed57600080fd5b5051905080156118165761181673a0b86991c6218b36c1d19d4a2e9eb0ce3606eb483383612aab565b50565b60048054604080516020601f6002600019610100600188161502019095169490940493840181900481028201810190925282815260609390929091830182828015610ccb5780601f10610ca057610100808354040283529160200191610ccb565b600d5481565b611888612512565b6001600160a01b03166118996116f8565b6001600160a01b0316146118e2576040805162461bcd60e51b81526020600482018190526024820152600080516020614137833981519152604482015290519081900360640190fd5b80156118165761181673a0b86991c6218b36c1d19d4a2e9eb0ce3606eb48333084612bfa565b6000600d546000141561191d57506000610cd3565b611946600d54611940600a54670de0b6b3a7640000612d5590919063ffffffff16565b90612dae565b905090565b6000610cea611958612512565b84610fa2856040518060600160405280602581526020016141eb6025913960016000611982612512565b6001600160a01b03908116825260208083019390935260409182016000908120918d168152925290205491906129a2565b6000610cea6119c0612512565b8484612847565b6007546001600160a01b03163314611a18576040805162461bcd60e51b815260206004820152600f60248201526e6f6e6c7920676f7665726e616e636560881b604482015290519081900360640190fd5b6001600160a01b038116611a65576040805162461bcd60e51b815260206004820152600f60248201526e6e756c6c20676f7665726e616e636560881b604482015290519081900360640190fd5b600780546001600160a01b0319166001600160a01b0392909216919091179055565b60008051602061400083398151915281565b611aa1612512565b6001600160a01b0316611ab26116f8565b6001600160a01b031614611afb576040805162461bcd60e51b81526020600482018190526024820152600080516020614137833981519152604482015290519081900360640190fd5b60005b8151811015611b60576000828281518110611b1557fe5b6020908102919091018101516001600160a01b0381166000908152600e90925260409091206002810154919250908015611b5557611b5583838342612e15565b505050600101611afe565b5061181661170c565b600073d9e1ce17f2641f24ae83637ab66a2cca9c378b9f6001600160a01b0316631f00ca748360096040518363ffffffff1660e01b815260040180838152602001806020018281038252838181548152602001915080548015611bf557602002820191906000526020600020905b81546001600160a01b03168152600190910190602001808311611bd7575b5050935050505060006040518083038186803b158015611c1457600080fd5b505afa158015611c28573d6000803e3d6000fd5b505050506040513d6000823e601f3d908101601f191682016040526020811015611c5157600080fd5b8101908080516040519392919084600160201b821115611c7057600080fd5b908301906020820185811115611c8557600080fd5b82518660208202830111600160201b82111715611ca157600080fd5b82525081516020918201928201910280838360005b83811015611cce578181015183820152602001611cb6565b50505050905001604052505050600081518110611ce757fe5b60200260200101519050919050565b600060026006541415611d3e576040805162461bcd60e51b815260206004820152601f6024820152600080516020613fbe833981519152604482015290519081900360640190fd5b6002600655611d5133846114698261149b565b604080516370a0823160e01b81523060048201529051919250600080516020614000833981519152916370a0823191602480820192602092909190829003018186803b158015611da057600080fd5b505afa158015611db4573d6000803e3d6000fd5b505050506040513d6020811015611dca57600080fd5b5051811115611e11576040805162461bcd60e51b815260206004820152600e60248201526d0dcdee840cadcdeeaced0408aa8960931b604482015290519081900360640190fd5b6000805160206140008339815191526001600160a01b0316632e1a7d4d826040518263ffffffff1660e01b815260040180828152602001915050600060405180830381600087803b158015611e6557600080fd5b505af1158015611e79573d6000803e3d6000fd5b5050505061148a838261275d565b604080516370a0823160e01b815230600482015290516000916119469173a0b86991c6218b36c1d19d4a2e9eb0ce3606eb48916370a08231916024808301926020929190829003018186803b158015611edf57600080fd5b505afa158015611ef3573d6000803e3d6000fd5b505050506040513d6020811015611f0957600080fd5b5051610d24565b736b3595068778dd592e39a122f4f5a5cf09c90fe281565b600080600060026006541415611f73576040805162461bcd60e51b815260206004820152601f6024820152600080516020613fbe833981519152604482015290519081900360640190fd5b60026006556007546001600160a01b03163314611fc9576040805162461bcd60e51b815260206004820152600f60248201526e6f6e6c7920676f7665726e616e636560881b604482015290519081900360640190fd5b611fe3600080516020614000833981519152333088612bfa565b8315612016576000611ffc620186a06119408888612d55565b905061200781612f97565b5061201286826131b2565b9550505b612021856002612dae565b945061202c85612f97565b50612037854261320f565b600b54929550909350915061204c9084612afd565b600b55600c5461205c9083612afd565b600c55600a5461206c9082612afd565b600a5560408051828152905133917ff1c12aad057a0fa9c03151851242f7e4b0ab1952166ab967451e72a1a69e5210919081900360200190a260016006819055509250925092565b6120bc612512565b6001600160a01b03166120cd6116f8565b6001600160a01b031614612116576040805162461bcd60e51b81526020600482018190526024820152600080516020614137833981519152604482015290519081900360640190fd5b60005b815181101561222657600082828151811061213057fe5b6020026020010151905061214381613565565b612185576040805162461bcd60e51b815260206004820152600e60248201526d6e6f742073616c76616761626c6560901b604482015290519081900360640190fd5b6000816001600160a01b03166370a08231306040518263ffffffff1660e01b815260040180826001600160a01b0316815260200191505060206040518083038186803b1580156121d457600080fd5b505afa1580156121e8573d6000803e3d6000fd5b505050506040513d60208110156121fe57600080fd5b50519050801561221c5761221c6001600160a01b0383163383612aab565b5050600101612119565b5050565b6001600160a01b03918216600090815260016020908152604080832093909416825291909152205490565b600181565b73c2edad668740f1aa35e4d8f227fb8e17dca888cd81565b6000600260065414156122ba576040805162461bcd60e51b815260206004820152601f6024820152600080516020613fbe833981519152604482015290519081900360640190fd5b60026006556122cb33858585612602565b9050610f1e6000805160206140008339815191528583612aab565b600080600073397ff1542f962076d0bfe58ea045ffa2d347aca06001600160a01b0316630902f1ac6040518163ffffffff1660e01b815260040160606040518083038186803b15801561233857600080fd5b505afa15801561234c573d6000803e3d6000fd5b505050506040513d606081101561236257600080fd5b50805160209182015160408051632b58577b60e21b8152600481018990526001600160701b03808416602483015284166044820152905192955090935073d9e1ce17f2641f24ae83637ab66a2cca9c378b9f9263ad615dec92606480840193829003018186803b158015610e1357600080fd5b6123dd612512565b6001600160a01b03166123ee6116f8565b6001600160a01b031614612437576040805162461bcd60e51b81526020600482018190526024820152600080516020614137833981519152604482015290519081900360640190fd5b6001600160a01b03811661247c5760405162461bcd60e51b81526004018080602001828103825260268152602001806140206026913960400191505060405180910390fd5b6005546040516001600160a01b0380841692610100900416907f8be0079c531659141344cd1fd0a4f28419497f9722a3daafe3b4186f6b6457e090600090a3600580546001600160a01b0390921661010002610100600160a81b0319909216919091179055565b600e60205260009081526040902080546001820154600283015460038401546004909401549293919290919085565b3390565b6001600160a01b03831661255b5760405162461bcd60e51b815260040180806020018281038252602481526020018061419d6024913960400191505060405180910390fd5b6001600160a01b0382166125a05760405162461bcd60e51b81526004018080602001828103825260228152602001806140466022913960400191505060405180910390fd5b6001600160a01b03808416600081815260016020908152604080832094871680845294825291829020859055815185815291517f8c5be1e5ebec7d5bd14f71427d1e84f3dd0314c0f7b2291e5b200ac8c7c3b9259281900390910190a3505050565b6001600160a01b0384166000908152600e602052604081206004810154600282015461263891869161263391612afd565b6135c7565b935060008411612687576040805162461bcd60e51b815260206004820152601560248201527473656e646572206e6f7420696e206d696e7465727360581b604482015290519081900360640190fd5b80600401548411156126b5576126b586826126af8460040154886131b290919063ffffffff16565b86612e15565b6126d48160040154611940836003015487612d5590919063ffffffff16565b60038201549092506126e690836131b2565b600382015560048101546126fa90856131b2565b600482015561270986856135dd565b846001600160a01b0316866001600160a01b03167fbac40739b0d4ca32fa2d82fc91630465ba3eddd1598da6fca393b26fb63b9453866040518082815260200191505060405180910390a350949350505050565b804710156127b2576040805162461bcd60e51b815260206004820152601d60248201527f416464726573733a20696e73756666696369656e742062616c616e6365000000604482015290519081900360640190fd5b6040516000906001600160a01b0384169083908381818185875af1925050503d80600081146127fd576040519150601f19603f3d011682016040523d82523d6000602084013e612802565b606091505b50509050806128425760405162461bcd60e51b815260040180806020018281038252603a81526020018061408e603a913960400191505060405180910390fd5b505050565b6001600160a01b03831661288c5760405162461bcd60e51b81526004018080602001828103825260258152602001806141786025913960400191505060405180910390fd5b6001600160a01b0382166128d15760405162461bcd60e51b8152600401808060200182810382526023815260200180613f9b6023913960400191505060405180910390fd5b6128dc838383612842565b61291981604051806060016040528060268152602001614068602691396001600160a01b03861660009081526020819052604090205491906129a2565b6001600160a01b0380851660009081526020819052604080822093909355908416815220546129489082612afd565b6001600160a01b038084166000818152602081815260409182902094909455805185815290519193928716927fddf252ad1be2c89b69c2b068fc378daa952ba7f163c4a11628f55a4df523b3ef92918290030190a3505050565b60008184841115612a315760405162461bcd60e51b81526004018080602001828103825283818151815260200191508051906020019080838360005b838110156129f65781810151838201526020016129de565b50505050905090810190601f168015612a235780820380516001836020036101000a031916815260200191505b509250505060405180910390fd5b505050900390565b60408051631c57762b60e31b815260016004820152600060248201819052915173c2edad668740f1aa35e4d8f227fb8e17dca888cd9263e2bbb158926044808201939182900301818387803b158015612a9157600080fd5b505af1158015612aa5573d6000803e3d6000fd5b50505050565b604080516001600160a01b038416602482015260448082018490528251808303909101815260649091019091526020810180516001600160e01b031663a9059cbb60e01b1790526128429084906136d9565b600082820183811015610fab576040805162461bcd60e51b815260206004820152601b60248201527f536166654d6174683a206164646974696f6e206f766572666c6f770000000000604482015290519081900360640190fd5b612b5f6113ee565b612ba7576040805162461bcd60e51b815260206004820152601460248201527314185d5cd8589b194e881b9bdd081c185d5cd95960621b604482015290519081900360640190fd5b6005805460ff60a81b191690557f5db9ee0a495bf2e6ff9c91a7834c1ba4fdd244a5e8aa4e537bd38aeae4b073aa612bdd612512565b604080516001600160a01b039092168252519081900360200190a1565b604080516001600160a01b0380861660248301528416604482015260648082018490528251808303909101815260849091019091526020810180516001600160e01b03166323b872dd60e01b179052612aa59085906136d9565b6001600160a01b0383166000908152600e6020526040812090612c798583868661378a565b9050612c85858261389f565b6040805182815290516001600160a01b0387169133917fab8530f87dc9b59234c4623bf917212bb2536d647574c8e7e5da92c2ede0c9f89181900360200190a35050505050565b612cd46113ee565b15612d19576040805162461bcd60e51b815260206004820152601060248201526f14185d5cd8589b194e881c185d5cd95960821b604482015290519081900360640190fd5b6005805460ff60a81b1916600160a81b1790557f62e78cea01bee320cd4e420270b5ea74000d11b0c9f74754ebdbfc544b05a258612bdd612512565b600082612d6457506000610cee565b82820282848281612d7157fe5b0414610fab5760405162461bcd60e51b81526004018080602001828103825260218152602001806140ee6021913960400191505060405180910390fd5b6000808211612e04576040805162461bcd60e51b815260206004820152601a60248201527f536166654d6174683a206469766973696f6e206279207a65726f000000000000604482015290519081900360640190fd5b818381612e0d57fe5b049392505050565b6000612e32600d54611940600a5486612d5590919063ffffffff16565b9050600080612e41838561398f565b915091506000612e668760020154611940888a60010154612d5590919063ffffffff16565b90506000612e898860020154611940898b60000154612d5590919063ffffffff16565b9050600080612e9a85878686613af2565b60018c01549193509150612eae90856131b2565b60018b01558954612ebf90846131b2565b8a5560028a0154612ed0908a6131b2565b60028b015560038a0154612ee49082612afd565b60038b015560048a0154612ef8908a612afd565b60048b0155600b54612f0a90856131b2565b600b55600c54612f1a90846131b2565b600c55600d54612f2a908a6131b2565b600d55600a54612f3a90886131b2565b600a55604080518381526020810183905280820189905290516001600160a01b038d169133917f313371cba9dbe42c40a306fcba1a868adcaeac02a1e632c628464a5b8f54f9309181900360600190a35050505050505050505050565b600081612fa6575060006114b5565b600073d9e1ce17f2641f24ae83637ab66a2cca9c378b9f6001600160a01b03166338ed1739846000600930426040518663ffffffff1660e01b81526004018086815260200185815260200180602001846001600160a01b03168152602001838152602001828103825285818154815260200191508054801561305157602002820191906000526020600020905b81546001600160a01b03168152600190910190602001808311613033575b50509650505050505050600060405180830381600087803b15801561307557600080fd5b505af1158015613089573d6000803e3d6000fd5b505050506040513d6000823e601f3d908101601f1916820160405260208110156130b257600080fd5b8101908080516040519392919084600160201b8211156130d157600080fd5b9083019060208201858111156130e657600080fd5b82518660208202830111600160201b8211171561310257600080fd5b82525081516020918201928201910280838360005b8381101561312f578181015183820152602001613117565b5050505090500160405250505090508060008151811061314b57fe5b60200260200101518314613195576040805162461bcd60e51b815260206004820152600c60248201526b0d8cacce8deeccae4408aa8960a31b604482015290519081900360640190fd5b806001815181106131a257fe5b6020026020010151915050919050565b600082821115613209576040805162461bcd60e51b815260206004820152601e60248201527f536166654d6174683a207375627472616374696f6e206f766572666c6f770000604482015290519081900360640190fd5b50900390565b6000806000846000805160206140008339815191526001600160a01b03166370a08231306040518263ffffffff1660e01b815260040180826001600160a01b0316815260200191505060206040518083038186803b15801561327057600080fd5b505afa158015613284573d6000803e3d6000fd5b505050506040513d602081101561329a57600080fd5b505110156132e1576040805162461bcd60e51b815260206004820152600f60248201526e0dcdee840cadcdeeaced040ae8aa89608b1b604482015290519081900360640190fd5b60006132ec866122e6565b604080516370a0823160e01b81523060048201529051919250829173a0b86991c6218b36c1d19d4a2e9eb0ce3606eb48916370a08231916024808301926020929190829003018186803b15801561334257600080fd5b505afa158015613356573d6000803e3d6000fd5b505050506040513d602081101561336c57600080fd5b505110156133c1576040805162461bcd60e51b815260206004820152601760248201527f6e6f7420656e6f7567682066726565206361706974616c000000000000000000604482015290519081900360640190fd5b6040805162e8e33760e81b8152600080516020614000833981519152600482015273a0b86991c6218b36c1d19d4a2e9eb0ce3606eb486024820152604481018890526064810183905260848101889052600060a482018190523060c483015260e48201889052915173d9e1ce17f2641f24ae83637ab66a2cca9c378b9f9263e8e337009261010480820193606093909283900390910190829087803b15801561346957600080fd5b505af115801561347d573d6000803e3d6000fd5b505050506040513d606081101561349357600080fd5b5080516020820151604090920151919550935091508583146134eb576040805162461bcd60e51b815260206004820152600c60248201526b0d8cacce8deeccae4408aa8960a31b604482015290519081900360640190fd5b60408051631c57762b60e31b81526001600482015260248101849052905173c2edad668740f1aa35e4d8f227fb8e17dca888cd9163e2bbb15891604480830192600092919082900301818387803b15801561354557600080fd5b505af1158015613559573d6000803e3d6000fd5b50505050509250925092565b600061357082613b75565b801561359957506001600160a01b03821673397ff1542f962076d0bfe58ea045ffa2d347aca014155b8015610cee57506001600160a01b038216736b3595068778dd592e39a122f4f5a5cf09c90fe2141592915050565b60008183106135d65781610fab565b5090919050565b6001600160a01b0382166136225760405162461bcd60e51b81526004018080602001828103825260218152602001806141576021913960400191505060405180910390fd5b61362e82600083612842565b61366b81604051806060016040528060228152602001613fde602291396001600160a01b03851660009081526020819052604090205491906129a2565b6001600160a01b03831660009081526020819052604090205560025461369190826131b2565b6002556040805182815290516000916001600160a01b038516917fddf252ad1be2c89b69c2b068fc378daa952ba7f163c4a11628f55a4df523b3ef9181900360200190a35050565b600061372e826040518060400160405280602081526020017f5361666545524332303a206c6f772d6c6576656c2063616c6c206661696c6564815250856001600160a01b0316613bbd9092919063ffffffff16565b8051909150156128425780806020019051602081101561374d57600080fd5b50516128425760405162461bcd60e51b815260040180806020018281038252602a8152602001806141c1602a913960400191505060405180910390fd5b60008060008061379a868661320f565b925092509250600d54600014156137b3578093506137d1565b6137ce600a54611940600d5484612d5590919063ffffffff16565b93505b60018701546137e09084612afd565b600188015586546137f19083612afd565b875560028701546138029085612afd565b6002880155600b546138149084612afd565b600b55600c546138249083612afd565b600c55600d546138349085612afd565b600d55600a546138449082612afd565b600a55604080518481526020810184905280820183905290516001600160a01b038a169133917f927f59529a00a2014f754eb3bd979db3e8d965372d5d60d5969b47508020b7c79181900360600190a3505050949350505050565b6001600160a01b0382166138fa576040805162461bcd60e51b815260206004820152601f60248201527f45524332303a206d696e7420746f20746865207a65726f206164647265737300604482015290519081900360640190fd5b61390660008383612842565b6002546139139082612afd565b6002556001600160a01b0382166000908152602081905260409020546139399082612afd565b6001600160a01b0383166000818152602081815260408083209490945583518581529351929391927fddf252ad1be2c89b69c2b068fc378daa952ba7f163c4a11628f55a4df523b3ef9281900390910190a35050565b600080836139a257506000905080613aeb565b60408051630441a3e760e41b81526001600482015260248101869052905173c2edad668740f1aa35e4d8f227fb8e17dca888cd9163441a3e7091604480830192600092919082900301818387803b1580156139fc57600080fd5b505af1158015613a10573d6000803e3d6000fd5b505060408051635d5155ef60e11b8152600080516020614000833981519152600482015273a0b86991c6218b36c1d19d4a2e9eb0ce3606eb48602482015260448101889052600060648201819052608482018190523060a483015260c48201889052825173d9e1ce17f2641f24ae83637ab66a2cca9c378b9f955063baa2abde945060e480840194939192918390030190829087803b158015613ab257600080fd5b505af1158015613ac6573d6000803e3d6000fd5b505050506040513d6040811015613adc57600080fd5b50805160209091015190925090505b9250929050565b60008083861115613b29576000613b0987866131b2565b9050613b1e613b1782613bd4565b8790612afd565b915084925050613b6c565b6000613b3585886131b2565b90506000613b468761263384611b69565b9050613b5b613b5482612f97565b8990612afd565b9350613b6787826131b2565b925050505b94509492505050565b60006001600160a01b03821660008051602061400083398151915214801590610cee5750506001600160a01b031673a0b86991c6218b36c1d19d4a2e9eb0ce3606eb48141590565b6060613bcc8484600085613dd3565b949350505050565b600081613be3575060006114b5565b600073d9e1ce17f2641f24ae83637ab66a2cca9c378b9f6001600160a01b03166338ed1739846000600830426040518663ffffffff1660e01b81526004018086815260200185815260200180602001846001600160a01b031681526020018381526020018281038252858181548152602001915080548015613c8e57602002820191906000526020600020905b81546001600160a01b03168152600190910190602001808311613c70575b50509650505050505050600060405180830381600087803b158015613cb257600080fd5b505af1158015613cc6573d6000803e3d6000fd5b505050506040513d6000823e601f3d908101601f191682016040526020811015613cef57600080fd5b8101908080516040519392919084600160201b821115613d0e57600080fd5b908301906020820185811115613d2357600080fd5b82518660208202830111600160201b82111715613d3f57600080fd5b82525081516020918201928201910280838360005b83811015613d6c578181015183820152602001613d54565b50505050905001604052505050905080600081518110613d8857fe5b60200260200101518314613195576040805162461bcd60e51b815260206004820152600d60248201526c6c6566746f766572205553444360981b604482015290519081900360640190fd5b606082471015613e145760405162461bcd60e51b81526004018080602001828103825260268152602001806140c86026913960400191505060405180910390fd5b613e1d85613f2e565b613e6e576040805162461bcd60e51b815260206004820152601d60248201527f416464726573733a2063616c6c20746f206e6f6e2d636f6e7472616374000000604482015290519081900360640190fd5b600080866001600160a01b031685876040518082805190602001908083835b60208310613eac5780518252601f199092019160209182019101613e8d565b6001836020036101000a03801982511681845116808217855250505050505090500191505060006040518083038185875af1925050503d8060008114613f0e576040519150601f19603f3d011682016040523d82523d6000602084013e613f13565b606091505b5091509150613f23828286613f34565b979650505050505050565b3b151590565b60608315613f43575081610fab565b825115613f535782518084602001fd5b60405162461bcd60e51b81526020600482018181528451602484015284518593919283926044019190850190808383600083156129f65781810151838201526020016129de56fe45524332303a207472616e7366657220746f20746865207a65726f20616464726573735265656e7472616e637947756172643a207265656e7472616e742063616c6c0045524332303a206275726e20616d6f756e7420657863656564732062616c616e6365000000000000000000000000c02aaa39b223fe8d0a0e5c4f27ead9083c756cc24f776e61626c653a206e6577206f776e657220697320746865207a65726f206164647265737345524332303a20617070726f766520746f20746865207a65726f206164647265737345524332303a207472616e7366657220616d6f756e7420657863656564732062616c616e6365416464726573733a20756e61626c6520746f2073656e642076616c75652c20726563697069656e74206d61792068617665207265766572746564416464726573733a20696e73756666696369656e742062616c616e636520666f722063616c6c536166654d6174683a206d756c7469706c69636174696f6e206f766572666c6f7745524332303a207472616e7366657220616d6f756e74206578636565647320616c6c6f77616e63654f776e61626c653a2063616c6c6572206973206e6f7420746865206f776e657245524332303a206275726e2066726f6d20746865207a65726f206164647265737345524332303a207472616e736665722066726f6d20746865207a65726f206164647265737345524332303a20617070726f76652066726f6d20746865207a65726f20616464726573735361666545524332303a204552433230206f7065726174696f6e20646964206e6f74207375636365656445524332303a2064656372656173656420616c6c6f77616e63652062656c6f77207a65726fa2646970667358221220ad0167e814d377b6cbe86f89070426d449fcb488ceb725e2f1e9191fbc4a347d64736f6c63430007060033",
  "devdoc": {
    "kind": "dev",
    "methods": {
      "allowance(address,address)": {
        "details": "See {IERC20-allowance}."
      },
      "approve(address,uint256)": {
        "details": "See {IERC20-approve}. Requirements: - `spender` cannot be the zero address."
      },
      "balanceOf(address)": {
        "details": "See {IERC20-balanceOf}."
      },
      "decimals()": {
        "details": "Returns the number of decimals used to get its user representation. For example, if `decimals` equals `2`, a balance of `505` tokens should be displayed to a user as `5,05` (`505 / 10 ** 2`). Tokens usually opt for a value of 18, imitating the relationship between Ether and Wei. This is the value {ERC20} uses, unless {_setupDecimals} is called. NOTE: This information is only used for _display_ purposes: it in no way affects any of the arithmetic of the contract, including {IERC20-balanceOf} and {IERC20-transfer}."
      },
      "decreaseAllowance(address,uint256)": {
        "details": "Atomically decreases the allowance granted to `spender` by the caller. This is an alternative to {approve} that can be used as a mitigation for problems described in {IERC20-approve}. Emits an {Approval} event indicating the updated allowance. Requirements: - `spender` cannot be the zero address. - `spender` must have allowance for the caller of at least `subtractedValue`."
      },
      "increaseAllowance(address,uint256)": {
        "details": "Atomically increases the allowance granted to `spender` by the caller. This is an alternative to {approve} that can be used as a mitigation for problems described in {IERC20-approve}. Emits an {Approval} event indicating the updated allowance. Requirements: - `spender` cannot be the zero address."
      },
      "name()": {
        "details": "Returns the name of the token."
      },
      "owner()": {
        "details": "Returns the address of the current owner."
      },
      "paused()": {
        "details": "Returns true if the contract is paused, and false otherwise."
      },
      "renounceOwnership()": {
        "details": "Leaves the contract without owner. It will not be possible to call `onlyOwner` functions anymore. Can only be called by the current owner. NOTE: Renouncing ownership will leave the contract without an owner, thereby removing any functionality that is only available to the owner."
      },
      "symbol()": {
        "details": "Returns the symbol of the token, usually a shorter version of the name."
      },
      "totalSupply()": {
        "details": "See {IERC20-totalSupply}."
      },
      "transfer(address,uint256)": {
        "details": "See {IERC20-transfer}. Requirements: - `recipient` cannot be the zero address. - the caller must have a balance of at least `amount`."
      },
      "transferFrom(address,address,uint256)": {
        "details": "See {IERC20-transferFrom}. Emits an {Approval} event indicating the updated allowance. This is not required by the EIP. See the note at the beginning of {ERC20}. Requirements: - `sender` and `recipient` cannot be the zero address. - `sender` must have a balance of at least `amount`. - the caller must have allowance for ``sender``'s tokens of at least `amount`."
      },
      "transferOwnership(address)": {
        "details": "Transfers ownership of the contract to a new account (`newOwner`). Can only be called by the current owner."
      }
    },
    "version": 1
  },
  "userdoc": {
    "kind": "user",
    "methods": {
      "addLiquidity(address,uint256,uint256)": {
        "notice": "Depositors only deposit ETH. This convenience function allows to deposit WETH (ERC20)."
      },
      "addLiquidityETH(address,uint256)": {
        "notice": "Depositors only deposit ETH. This convenience function allows to deposit ETH directly."
      },
      "amountInETHForRequestedOutUSDC(uint256)": {
        "notice": "returns ETH amount (in) needed when swapping for requested USDC amount (out)"
      },
      "availableSpaceToDepositETH()": {
        "notice": "The contract holds available USDC to be paired with newly deposited ETH to create Sushi LP. If there's not enough available USDC, the ETH deposit tx will revert. This view function shows what's the maximum amount of ETH that can be deposited. Should be called by clients to make sure users' txs are not reverted."
      },
      "claimRewards()": {
        "notice": "Since all Sushi LP held by this contract are auto deposited in Sushi MasterChef, SUSHI rewards accrue. This allows the governance (the vault working with this contract) to claim the rewards so they can be sold by governance and compounded back inside via compoundProfits."
      },
      "compoundProfits(uint256,uint256)": {
        "notice": "SUSHI rewards that were claimed by governance (the vault working with this contract) and sold by governance can be compounded back inside via this function. Receives all sold rewards as ETH. Argument capitalProviderRewardPercentmil is the split of the profits that should be given to the provider of USDC. Use 50000 to have an even 50/50 split of the reward profits. Use 20000 to take 80% to the ETH providers and leave 20% of reward profits to the USDC provider."
      },
      "depositCapital(uint256)": {
        "notice": "Only the owner is supposed to deposit USDC into this contract."
      },
      "emergencyExit(address[])": {
        "notice": "Allows the owner (the capital provider of USDC) to emergency exit all of their USDC. When called, all Sushi LP is burned to extract ETH+USDC, the USDC part is returned to owner. The ETH will wait in the contract until the original ETH depositors will remove it."
      },
      "pause()": {
        "notice": "Pause will only prevent new ETH deposits (addLiquidity). Existing depositors will still be able to removeLiquidity even when paused."
      },
      "pricePerFullShare()": {
        "notice": "The number of Sushi LP per Nexus LP share is growing due to rewards compounding. This view function shows this number that should be above 1 at all times."
      },
      "quote(uint256)": {
        "notice": "returns price of ETH in USDC"
      },
      "quoteInverse(uint256)": {
        "notice": "returns price of USDC in ETH"
      },
      "removeAllLiquidity(address,uint256)": {
        "notice": "Remove the entire Nexus LP balance."
      },
      "removeAllLiquidityETH(address,uint256)": {
        "notice": "Remove the entire Nexus LP balance."
      },
      "removeLiquidity(address,uint256,uint256)": {
        "notice": "When a depositor removes liquidity, they get ETH back. This works with WETH (ERC20). Argument shares is the number of Nexus LP tokens to burn. Note: only the original address that called addLiquidity can call removeLiquidity."
      },
      "removeLiquidityETH(address,uint256,uint256)": {
        "notice": "When a depositor removes liquidity, they get ETH back. This works with ETH directly. Argument shares is the number of Nexus LP tokens to burn. Note: only the original address that called addLiquidity can call removeLiquidity."
      },
      "salvage(address[])": {
        "notice": "Owner can only salvage unrelated tokens that were sent by mistake."
      },
      "withdrawFreeCapital()": {
        "notice": "The owner can withdraw the unused USDC capital that they had deposited earlier."
      }
    },
    "notice": "This contract is part of Orbs Liquidity Nexus protocol. It is a thin wrapper over Sushi LP token and represents liquidity added to the Sushi ETH/USDC pair. The purpose of Liquidity Nexus is to allow single-sided ETH-only farming on SushiSwap. In regular Sushi LP, users add liquidity of both USDC and ETH in equal values. Nexus LP allows users to add liquidity in ETH only, without needing any USDC. So where does the USDC come from? USDC is sourced separately from Orbs Liquidity Nexus and originates from CeFi. This large pool of USDC is deployed in advance and is waiting in the contract until ETH is added. Once ETH is added by users, it is paired with part of the available USDC to generate regular Sushi LP. When liquidity is removed by a user, the Sushi LP is burned, the USDC is returned to the pool and the ETH is returned to the user.",
    "version": 1
  },
  "storageLayout": {
    "storage": [
      {
        "astId": 554,
        "contract": "contracts/NexusLPSushi.sol:NexusLPSushi",
        "label": "_balances",
        "offset": 0,
        "slot": "0",
        "type": "t_mapping(t_address,t_uint256)"
      },
      {
        "astId": 560,
        "contract": "contracts/NexusLPSushi.sol:NexusLPSushi",
        "label": "_allowances",
        "offset": 0,
        "slot": "1",
        "type": "t_mapping(t_address,t_mapping(t_address,t_uint256))"
      },
      {
        "astId": 562,
        "contract": "contracts/NexusLPSushi.sol:NexusLPSushi",
        "label": "_totalSupply",
        "offset": 0,
        "slot": "2",
        "type": "t_uint256"
      },
      {
        "astId": 564,
        "contract": "contracts/NexusLPSushi.sol:NexusLPSushi",
        "label": "_name",
        "offset": 0,
        "slot": "3",
        "type": "t_string_storage"
      },
      {
        "astId": 566,
        "contract": "contracts/NexusLPSushi.sol:NexusLPSushi",
        "label": "_symbol",
        "offset": 0,
        "slot": "4",
        "type": "t_string_storage"
      },
      {
        "astId": 568,
        "contract": "contracts/NexusLPSushi.sol:NexusLPSushi",
        "label": "_decimals",
        "offset": 0,
        "slot": "5",
        "type": "t_uint8"
      },
      {
        "astId": 7,
        "contract": "contracts/NexusLPSushi.sol:NexusLPSushi",
        "label": "_owner",
        "offset": 1,
        "slot": "5",
        "type": "t_address"
      },
      {
        "astId": 1668,
        "contract": "contracts/NexusLPSushi.sol:NexusLPSushi",
        "label": "_paused",
        "offset": 21,
        "slot": "5",
        "type": "t_bool"
      },
      {
        "astId": 1753,
        "contract": "contracts/NexusLPSushi.sol:NexusLPSushi",
        "label": "_status",
        "offset": 0,
        "slot": "6",
        "type": "t_uint256"
      },
      {
        "astId": 3040,
        "contract": "contracts/NexusLPSushi.sol:NexusLPSushi",
        "label": "governance",
        "offset": 0,
        "slot": "7",
        "type": "t_address"
      },
      {
        "astId": 3309,
        "contract": "contracts/NexusLPSushi.sol:NexusLPSushi",
        "label": "pathToETH",
        "offset": 0,
        "slot": "8",
        "type": "t_array(t_address)dyn_storage"
      },
      {
        "astId": 3317,
        "contract": "contracts/NexusLPSushi.sol:NexusLPSushi",
        "label": "pathToUSDC",
        "offset": 0,
        "slot": "9",
        "type": "t_array(t_address)dyn_storage"
      },
      {
        "astId": 1867,
        "contract": "contracts/NexusLPSushi.sol:NexusLPSushi",
        "label": "totalLiquidity",
        "offset": 0,
        "slot": "10",
        "type": "t_uint256"
      },
      {
        "astId": 1869,
        "contract": "contracts/NexusLPSushi.sol:NexusLPSushi",
        "label": "totalPairedUSDC",
        "offset": 0,
        "slot": "11",
        "type": "t_uint256"
      },
      {
        "astId": 1871,
        "contract": "contracts/NexusLPSushi.sol:NexusLPSushi",
        "label": "totalPairedETH",
        "offset": 0,
        "slot": "12",
        "type": "t_uint256"
      },
      {
        "astId": 1873,
        "contract": "contracts/NexusLPSushi.sol:NexusLPSushi",
        "label": "totalPairedShares",
        "offset": 0,
        "slot": "13",
        "type": "t_uint256"
      },
      {
        "astId": 1877,
        "contract": "contracts/NexusLPSushi.sol:NexusLPSushi",
        "label": "minters",
        "offset": 0,
        "slot": "14",
        "type": "t_mapping(t_address,t_struct(Minter)1865_storage)"
      }
    ],
    "types": {
      "t_address": {
        "encoding": "inplace",
        "label": "address",
        "numberOfBytes": "20"
      },
      "t_array(t_address)dyn_storage": {
        "base": "t_address",
        "encoding": "dynamic_array",
        "label": "address[]",
        "numberOfBytes": "32"
      },
      "t_bool": {
        "encoding": "inplace",
        "label": "bool",
        "numberOfBytes": "1"
      },
      "t_mapping(t_address,t_mapping(t_address,t_uint256))": {
        "encoding": "mapping",
        "key": "t_address",
        "label": "mapping(address => mapping(address => uint256))",
        "numberOfBytes": "32",
        "value": "t_mapping(t_address,t_uint256)"
      },
      "t_mapping(t_address,t_struct(Minter)1865_storage)": {
        "encoding": "mapping",
        "key": "t_address",
        "label": "mapping(address => struct NexusLPSushi.Minter)",
        "numberOfBytes": "32",
        "value": "t_struct(Minter)1865_storage"
      },
      "t_mapping(t_address,t_uint256)": {
        "encoding": "mapping",
        "key": "t_address",
        "label": "mapping(address => uint256)",
        "numberOfBytes": "32",
        "value": "t_uint256"
      },
      "t_string_storage": {
        "encoding": "bytes",
        "label": "string",
        "numberOfBytes": "32"
      },
      "t_struct(Minter)1865_storage": {
        "encoding": "inplace",
        "label": "struct NexusLPSushi.Minter",
        "members": [
          {
            "astId": 1856,
            "contract": "contracts/NexusLPSushi.sol:NexusLPSushi",
            "label": "pairedETH",
            "offset": 0,
            "slot": "0",
            "type": "t_uint256"
          },
          {
            "astId": 1858,
            "contract": "contracts/NexusLPSushi.sol:NexusLPSushi",
            "label": "pairedUSDC",
            "offset": 0,
            "slot": "1",
            "type": "t_uint256"
          },
          {
            "astId": 1860,
            "contract": "contracts/NexusLPSushi.sol:NexusLPSushi",
            "label": "pairedShares",
            "offset": 0,
            "slot": "2",
            "type": "t_uint256"
          },
          {
            "astId": 1862,
            "contract": "contracts/NexusLPSushi.sol:NexusLPSushi",
            "label": "unpairedETH",
            "offset": 0,
            "slot": "3",
            "type": "t_uint256"
          },
          {
            "astId": 1864,
            "contract": "contracts/NexusLPSushi.sol:NexusLPSushi",
            "label": "unpairedShares",
            "offset": 0,
            "slot": "4",
            "type": "t_uint256"
          }
        ],
        "numberOfBytes": "160"
      },
      "t_uint256": {
        "encoding": "inplace",
        "label": "uint256",
        "numberOfBytes": "32"
      },
      "t_uint8": {
        "encoding": "inplace",
        "label": "uint8",
        "numberOfBytes": "1"
      }
    }
  }
}